:02000000382A9C
:0E000600213083120313FD00FD0B07280800B4
:100014000F3083120313FC004730FD00FD0B102842
:0A002400FC0B10280000000008008B
:06002E00000000000800C4
:1000340083120313CF1B20288611212886154F1BFA
:100044002528061126280615CF1A2A2886102B28BB
:1000540086144F1A2F280610302806142A1834281C
:10006400061635280612861617208612CF193C2844
:1000740086113D2886154F19412806114228061578
:10008400CF1846288610472886144F184B28061088
:100094004C2806142A1850280616512806128616CB
:1000A400172086122A1C58280A20592803200800E1
:1000B40083120313F801F9011030FC00710DF80DDF
:1000C400F90D7408F8027508031C750FF90203187A
:1000D40072287408F80775080318750FF9070310D8
:0A00E400F00DF10DFC0B6028080080
:1000EE0083120313CD0105304D02031885284D08E8
:1000FE004C07840020308000CD0A7A284D084C072A
:10010E0084008001CD034D084C07CE000A30F40068
:10011E00F5014A08F0004B08F1005A207808F0006B
:10012E007908F1003030F0074E0884007008800026
:10013E000A30F400F5014A08F0004B08F1005A208D
:10014E007008CA007108CB0000307106031DB1287B
:10015E0000307006031DB428B628CD038A28080087
:0E016E008312031329088A0028088200080063
:10017C00831203132A104A08CF001A202A140800ED
:10018C00831203132108930083161418CF28000040
:0A019C00CA2883121308F0000800BF
:1001A600831203132008930083161418DC2800001A
:0A01B600D72883121308F000080098
:1001C00083120313C601C7014108C8004208C900D1
:1001D00080304206F00080307002031DF1280030AC
:1001E00041020318FF280130C6000030C700410853
:1001F000003CC8004208031C013EC901C90248086E
:10020000CA004908CB004308CC0077200630C40060
:100210000030C5004508003C031D10294408003C7F
:1002200003182B2944084307F20001304402F00070
:100230000030031C013E4502F100700843078400B2
:100240000008F00072088400700880000130C402C9
:10025000031CC5030A294308840020308000460897
:10026000470403194929C401C50144084307840010
:100270000008203A031D4029C40A0319C50A35297C
:100280000130C402031CC5034408430784002D3019
:0402900080000800E2
:100294008312031307104108A100C6204208A100DD
:0602A400C620071408004B
:1002AA006729803083120313C1007A29C030C10044
:1002BA007A299430C1007A29D430C1007A29803051
:1002CA00C1007A29831203134108013A03195629F6
:1002DA004108023A03195B294108033A03195E29C6
:1002EA004108043A0319612964294203F0004108CC
:1002FA00F0077008C1007008CF001A202A10C40144
:10030A004408430784000008031993294408430753
:10031A0084000008CA00BE20C40A85292A140800DD
:10032A008030831203134104A1000710C620A001E4
:06033A00D32007140800A7
:10034000D33083120313AE000030AF002030B00072
:100350000030C630AB000030AC002130AD000030C2
:100360008316871283124108043A031DBA298316A3
:100370008715BC29831687110716831294018316EB
:1003800014139413831241089404430894044208FC
:1003900083169404831243080319D5294408003AAC
:1003A000031DD42983161417DB298312440803196B
:0C03B000DB298316141783129416080032
:1003BC008316031386120612061086100611861178
:1003CC0083128612061286110611861006100A2058
:1003DC000A200A20861406148616172086120A2074
:1003EC008616172086120A208616172086120A20D7
:1003FC0006108616172086120A20861617208612DB
:10040C00861086158616172086120A208611061469
:10041C0086161720861206108616172086120A20BA
:10042C0086161720861206148616172086120A20A6
:10043C0006108616172086128615061586140614C5
:0C044C008616172086120A202A140800C9
:10045800B7208A110A128000840AA80A0319A90A77
:08046800F003031D2C2A08001B
:1004700083120313A201A301A401A501A601A701F0
:10048000831686018312071483160710DE210130BC
:10049000CF001A200C30CF001A20C101C201103049
:1004A000C3000130C400A0212D30C100C2014A2187
:1004B0003130C1000B30C2004A212C30C1000F3056
:1004C000C2004A212D30C1000830C2004A2132301A
:1004D000C10095217008A300A2013330C10095210D
:1004E0007008A2040030A3043430C10095217008C4
:1004F000A500A4013530C10095217008A404003086
:10050000A5043630C10095217008A700A601373038
:10051000C10095217008A6040030A7042208C1007C
:100520002308C2003130C300E0200130C100013097
:10053000C2003130C30055210230FB000430FC0002
:10054000BA30FD00FD0BA22AFC0BA22AFB0BA22A4B
:1005500000002408C1002508C2003130C300E0209B
:100560000230C1000130C2003130C30055210230D9
:10057000FB000430FC00BA30FD00FD0BBD2AFC0B73
:10058000BD2AFB0BBD2A00002608C1002708C200B7
:100590003130C300E0200230C1000730C2003130EA
:0805A000C3005521672AD32A8C
:02400E004A2F37
:00000001FF
